:100000005CC100007BC1000079C1000077C1000025
:1000100075C1000073C100000C94DC100C94041135
:100020000C942C110C9454110C940C120C94291255
:1000300065C100000C94E11A0C94A2120C94CF122A
:100040000C94FC120C9429130C9456130C948313E7
:100050000C94B0130C94DD130C940A140C94371404
:100060004DC100004BC1000049C1000047C1000064
:1000700045C1000043C1000041C100003FC1000074
:100080003DC100003BC1000039C1000037C1000084
:1000900035C1000033C1000031C100002FC1000094
:1000A0002DC100002BC1000029C1000027C10000A4
:1000B00025C1000023C100000C94081B0C942616D7
:1000C0000C9453160C9480160C94AD160C94DA16FE
:1000D0000C9407170C9434170C9461170C948E171A
:1000E0000C94BB170BC1000009C1000007C1000040
:1000F00005C1000003C1000001C10000FFC00000F5
:100100000C940235FBC00000F9C00000F7C00000ED
:10011000F5C00000F3C00000F1C00000EFC0000017
:10012000EDC00000EBC00000E9C00000E7C0000027
:10013000E5C000000C9464140C9491140C94BE144B
:100140000C94EB140C9418150C9445150C94721522
:100150000C949F150C94CC150C94F915CFC000008D
:10016000CDC00000CBC00000C9C00000C7C0000067
:10017000C5C00000C3C00000C1C00000BFC0000077
:10018000BDC00000BBC00000B9C00000B7C0000087
:10019000B5C00000B3C00000B1C00000AFC0000097
:1001A000ADC00000ABC00000A9C00000A7C00000A7
:1001B0000C94E8170C9415180C9442180C946F18B2
:1001C0000C949C180C94C91899C0000097C00000AA
:1001D00095C0000093C0000091C000008FC00000D7
:1001E0008DC000008BC0000089C0000087C00000E7
:1001F00085C000000C948F220C944323861D891D1A
:100200008C1D8F1D921D951D981DE526F526D52662
:10021000C626B726A72697268826D734DA34DD34B3
:10022000DD34DD34DD34DD34DD34DD34DD34DD3446
:10023000DD34DD34DD34DD34DD34A12EDD34CE2F8C
:10024000F631DD34DD34D32EDD34DD34DD34DD3420
:10025000F92E0E33DD34DD344433DD346033DE30EB
:10026000DD34DD34DD34DD34DD34DD34BB34DD3428
:10027000DD34DD34DD34DD34DD34DD34DD34DD34F6
:10028000DD34DD34DD34DD34DD34DD34DD34DD34E6
:10029000DD34DD34DD34DD34DD34DD34DD34DD34D6
:1002A000DD34DD34DD34DD34DD34DD34D434636419
:1002B000696E6F70737578585B0011241FBECFEFA5
:1002C000CDBFDFE5DEBF00E00CBF17E2A0E0B0E28B
:1002D000E8EDF3E800E00BBF02C007900D92AE39E5
:1002E000B107D9F72EE2AEE9B7E201C01D92AA3DEF
:1002F000B207E1F70E9480350C94EA4181CECF939A
:10030000DF931F92CDB7DEB78091862E9091872E16
:10031000E091782EF091792EBE016F5F7F4F199595
:100320008981082E000C990B0F90DF91CF910895D1
:1003300080919E27882389F0862F082E000C990B28
:100340000E94600C21E030E0892B11F020E030E0C9
:1003500088279927821B930B089580E090E00895E9
:10036000CF93DF9380919E27811103C0FB01108200
:1003700004C0EB010E94E30B8883DF91CF910895C5
:1003800081E080939E2708951092862E1092872EEA
:1003900088E991E08093842E9093852E80EB91E004
:1003A0008093782E9093792E0E94BA0D0E942F2070
:1003B000811102C00E9431206FE771E083EE91E06D
:1003C0000C94013B0895682F8091862E9091872E82
:1003D000E091842EF091852E199599231CF081E0EF
:1003E00090E008958FEF9FEF0895E0E4F6E080EB52
:1003F0008183858316820895CF92DF92EF92FF92D8
:100400000F931F9380EB98E018D7C12CD12C760165
:1004100000E016E32EE631E040E066E070E280EBBB
:1004200098E042D71F910F91FF90EF90DF90CF900F
:100430000895CF92DF92EF92FF92CF93DF932091B6
:10044000892E30918A2E3323DCF4A901332324F43E
:1004500044275527421B530B4093892E50938A2ED5
:100460008417950728F410929F271092A02725C083
:100470009C01241B350B20939F273093A0271DC080
:100480006901E12CF12C4FEF5FEF60E070E0481B59
:10049000590B610971094C155D056E057F053CF42A
:1004A0008FEF9FEF80939F279093A02706C0280F80
:1004B000391F20939F273093A027FFB6F89466E05A
:1004C00070E280EB98E022D7CFE9D7E2698180EB38
:1004D00098E00E949F1B688180EB98E00E949F1B20
:1004E00066E070E280EB98E027D7FFBEDF91CF9106
:1004F000FF90EF90DF90CF9008950E94BD0DF8948B
:1005000082E08CBFE0910720F091082019950895B2
:1005100088E89EE20E94951180E00C94AD11089548
:1005200080EB90E20E94D23BE8E8FEE281E080832B
:1005300011821282838380E197E2848395831682FD
:1005400017821086118612861386148615861686E3
:100550001786108A118A128A138A88EB9BE0A0E022
:10056000B0E0848B958BA68BB78B80EC96ECADE2DC
:10057000B0E0808F918FA28FB38F148EC9CF089572
:10058000CF93DF9381ED90E20E94D23B40E250E0B6
:1005900068E87EE280E090E00E947C118091882EE5
:1005A000813029F081EE90E20E94D23BB9DFC8E8A9
:1005B000DEE28A818F9389818F938EEF90E29F9301
:1005C0008F930E94BA3B8B811F928F938AE191E2B5
:1005D0009F938F930E94BA3B8D818F938C818F93D1
:1005E00083E391E29F938F930E94BA3B8F818F9315
:1005F0008E818F9384E591E29F938F930E94BA3B03
:1006000089858F9388858F938BE691E29F938F9353
:100610000E94BA3B8B858F938A858F9381E891E204
:100620009F938F930E94BA3B8D858F938C858F9378
:1006300088E991E29F938F930E94BA3B8F858F93B5
:100640008E858F9380EB91E29F938F930E94BA3BAC
:100650008DB79EB780968DBF9EBF89898F938889FD
:100660008F9386EC91E29F938F930E94BA3B8B8984
:100670008F938A898F938DED91E29F938F930E9440
:10068000BA3B8F898F938E898F938D898F938C89B5
:100690008F9385EF91E29F938F930E94BA3B8B8D4E
:1006A0008F938A8D8F93898D8F93888D8F938CE014
:1006B00092E29F938F930E94BA3B8C8D1F928F93EF
:1006C00083E292E29F938F930E94BA3B8C8D1F929C
:1006D0008F938B8D8F938A8D8F93898D8F93888D38
:1006E0008F938F898F938E898F938D898F938C8928
:1006F0008F938B898F938A898F9389898F93888928
:100700008F938F858F938E858F938D858F938C8517
:100710008F938B858F938A858F9389858F93888517
:100720008F938F818F938E818F938D818F938C8107
:100730008F938B811F928F938A818F9389818F935F
:100740008FE392E29F938F930E94BA3B8DB79EB73F
:10075000C8968DBF9EBFDF91CF910895FC01908117
:10076000963459F01CF4943431F04FC0923539F07E
:10077000973539F04AC0D4CE0895BFCE089500CF42
:10078000089584EA9EE29F938F9380EA9EE29F936E
:100790008F938CE99EE29F938F938AE99EE29F93C9
:1007A0008F9388E99EE29F938F9386E99EE29F93C1
:1007B0008F9384E99EE29F938F9382E99EE29F93B9
:1007C0008F9380E99EE29F938F938EE89EE29F93A2
:1007D0008F938CE89EE29F938F938BE89EE29F938A
:1007E0008F9389E89EE29F938F9380E093E29F939B
:1007F0008F933196FF93EF930E94153C89DE8DB75E
:100800009EB74E968DBF9EBF0895292F092E000CCE
:10081000330B3F939F9381E293E29F938F930E94C8
:10082000BA3B0F900F900F900F900895E0E8F6E01C
:1008300082E081838683089582E08093850608950F
:1008400082E0809386060895CF92DF92EF92FF9226
:100850006B017C01E0E0FAE08081807F808320E012
:1008600030E040EF51E4C701B6010E940739181685
:100870000CF481C02FE534E244E75EE3C701B60122
:100880000E947D3788230CF478C080E09AE00E94B3
:10089000F618E0E0FAE08181887F816081838181C0
:1008A000806281838081807F85608083A70196013B
:1008B000C701B6010E9406376B017C019B01AC01A8
:1008C00060E070E080E89FE30E94813720E03BE138
:1008D00047E35CE40E940B3920E030E040E857E356
:1008E0000E940B390E946A370E94E9376134710512
:1008F00048F4E0E0FAE08081807F8560808320E436
:1009000030E01FC0613081E0780748F4E0E0FAE0B1
:100910008081807F8660808320E031E012C061307A
:10092000744048F4E0E0FAE08081807F8760808353
:1009300020E034E006C082E493E20E94D23B80E0F3
:100940001DC040E050E060E07CE68CED92E00E944B
:10095000A439CA01B9010E941738A70196010E9463
:1009600081370E94E937615071096093280A7093BA
:10097000290A80E003C081E001C081E0FF90EF9090
:10098000DF90CF900895E0E0FAE08081807F80835F
:100990008181887F818380E09AE00E94621982E0F1
:1009A0008093860608951F93CF93DF93CDB7DEB76C
:1009B0002C97CDBFDEBF13E01C871A8281E090E048
:1009C0008D839E839E01245F3F4F2F83388729E2CA
:1009D000298389879A871B8640E0BE016F5F7F4F1E
:1009E00080E894E00E94441B80EC8C8781E88A8335
:1009F00040E0BE016F5F7F4F80E894E00E94441B9F
:100A00001C878FE88A8340E0BE016F5F7F4F80E8DC
:100A100094E00E94441B2C96CDBFDEBFDF91CF91A6
:100A20001F9108950F931F93CF93DF93CDB7DEB738
:100A30006397CDBFDEBF8C0184EB8A8781E090E0B5
:100A40008D879E87CE0101968F87988B89E2898753
:100A50001B8A88E090E0898B9A8B41E0BE01675F3A
:100A60007F4F80E894E00E94441B89819A81F801BD
:100A7000808391838B819C81828393838D819E81EE
:100A8000848395838F819885868397836396CDBF72
:100A9000DEBFDF91CF911F910F910895662321F062
:100AA00080E48093A5060FC080E48093A606809121
:100AB000A127882341F08FB7F89498ED94BF91E077
:100AC000909379008FBF6093A1270895AAECB1E0BD
:100AD00022E02C93FC0184911C920895CF93DF9324
:100AE000EC0188E090E0F2DF888389E090E0EEDFBF
:100AF00089838AE090E0EADF8A838BE090E0E6DF9A
:100B00008B838CE090E0E2DF8C838DE090E0DEDF91
:100B10008D83DF91CF910895EAE7FEE284E480833C
:100B200083E5818384E5828391E4938384838FE7E3
:100B30009EE2D4CF08956150710981099109D9F7D6
:100B40000895E0E8F6E080E4828380EB818380E929
:100B5000858380E28683809362069FB7F894E5E7F9
:100B6000F6E08081887F80838081826080839FBF60
:100B70000895CF92DF92EF92FF920F931F9380EB35
:100B80009AE05BD3C12CD12C760100EE1DEF2CE155
:100B900030E041E069E070E280EB9AE085D31F919C
:100BA0000F91FF90EF90DF90CF90089569E070E291
:100BB00080EB9AE0ABD3E0EBFAE0818185FFFDCFDB
:100BC0008CEF8093B00AE0EBFAE0818186FFFDCFE5
:100BD000E0EBFAE080E48183808169E070E280EB01
:100BE0009AE0AAC30895CF93DF9300D000D0CDB789
:100BF000DEB790E5998393E09A838B8388E08C83BA
:100C00004D836E83623709F465C0B0F4633309F431
:100C100045C040F46331A1F16332C9F1633009F09A
:100C200098C027C0633509F447C0633609F44BC048
:100C3000633409F08EC039C0603B09F467C050F4DA
:100C4000623909F455C0613A09F459C0623809F0B3
:100C500080C047C0603D09F467C020F4603C09F4DF
:100C60005CC077C0603E09F466C0603F09F46AC0AA
:100C700070C086E59CE98093A2279093A3276DC05E
:100C800086E39EE48093A2279093A32766C086E222
:100C900097E28093A2279093A3275FC080E29AE116
:100CA0008093A2279093A32758C086EB9FE0809360
:100CB000A2279093A32751C08BE19DE08093A227A8
:100CC0009093A3274AC086EE97E08093A227909343
:100CD000A32743C088E996E08093A2279093A32797
:100CE0003CC08EEF93E08093A2279093A32735C05A
:100CF0008EED90E08093A2279093A3272EC08AE7E1
:100D000090E08093A2279093A32727C088E490E0E7
:100D10008093A2279093A32720C080E390E0809344
:100D2000A2279093A32719C083E290E08093A22783
:100D30009093A32712C08DE190E08093A227909317
:100D4000A3270BC089E190E08093A2279093A3276B
:100D500004C081E893E20E94D23B69E070E280EB3C
:100D60009AE0D4D2E0EBFAE0818185FFFDCF8FE0FD
:100D70008093B00AE0EBFAE0818186FFFDCFE0EBE3
:100D8000FAE080E48183808146E050E0BE016F5F3D
:100D90007F4F80EB9AE0A3D2E0EBFAE0818185FF00
:100DA000FDCF8CEF8093B00AE0EBFAE0818186FF03
:100DB000FDCFE0EBFAE080E481838081818185FFD3
:100DC000FDCF80EF8093B00AE0EBFAE0818186FFEF
:100DD000FDCFE0EBFAE080E481838081E0E6F6E09D
:100DE000808585FDFDCF69E070E280EB9AE0A4D2BA
:100DF0002696CDBFDEBFDF91CF910895CF93DF93CD
:100E000000D000D0CDB7DEB7FE01319696E0DF010D
:100E10001D929A95E9F791E599838B8369E070E2D9
:100E200080EB9AE073D2E0EBFAE0818185FFFDCFA1
:100E30008FE08093B00AE0EBFAE0818186FFFDCF7E
:100E4000E0EBFAE080E48183808143E050E0BE0182
:100E50006F5F7F4F80EB9AE042D2E0EBFAE0818156
:100E600085FFFDCF8CEF8093B00AE0EBFAE0818143
:100E700086FFFDCFE0EBFAE080E481838081818111
:100E800085FFFDCF80EF8093B00AE0EBFAE081812F
:100E900086FFFDCFE0EBFAE080E481838081E0E62D
:100EA000F6E0808585FDFDCF69E070E280EB9AE099
:100EB00043D22696CDBFDEBFDF91CF91089569E082
:100EC00070E280EB9AE022D2E0EBFAE0818185FFCC
:100ED000FDCF8DEF8093B00AE0EBFAE0818186FFD1
:100EE000FDCFE0EBFAE080E48183808169E070E28D
:100EF00080EB9AE021C2089569E070E280EB9AE00D
:100F000005D2E0EBFAE0818185FFFDCF1092B00AB7
:100F1000E0EBFAE0818186FFFDCFE0EBFAE080E4D0
:100F20008183808169E070E280EB9AE005C20895D8
:100F300069E070E280EB9AE0E9D1E0EBFAE08181D0
:100F400085FFFDCF83E08093B00AE0EBFAE081817A
:100F500086FFFDCFE0EBFAE080E481838081E0E66C
:100F6000F6E0808585FDFDCF69E070E280EB9AE0D8
:100F7000E3C108951F93CF93DF9300D01F92CDB7A5
:100F8000DEB719821A821B821C821FB7F89469E0AF
:100F900070E280EB9AE0BAD1DE0114969E012F5FD9
:100FA0003F4FE0EBFAE09FEF818185FFFDCF90831B
:100FB00081818823ECF780818E93A217B307A1F774
:100FC000E0EBFAE0818186FFFDCF80E48093B10AF7
:100FD00069E070E280EB9AE0AFD18B8188231CF44A
:100FE0008FEF8C8301C01C821FBF69817A818B8146
:100FF0009C812496CDBFDEBFDF91CF911F910895D4
:101000001F93CF93DF9300D01F92CDB7DEB7198225
:101010001A821B821C821FB7F89469E070E280EB91
:101020009AE074D1E0EBFAE0818185FFFDCF81E0A9
:101030008093B00AE0EBFAE0818186FFFDCFE0EB20
:10104000FAE080E48183808160E370E080E090E0FA
:1010500072DDDE0114969E012F5F3F4FE0EBFAE058
:101060009FEF818185FFFDCF908381818823ECF7FD
:1010700080818E93A217B307A1F7E0EBFAE081819C
:1010800086FFFDCF80E48093B10A69E070E280EBD7
:101090009AE052D18B8188231CF48FEF8C8301C09E
:1010A0001C821FBF69817A818B819C812496CDBF70
:1010B000DEBFDF91CF911F91089508958FEF809348
:1010C000700080937100809372008093730080930E
:1010D000740080937500809376008091510084FDA8
:1010E0001EC08091510083FD0DC0E0E5F0E08BEC67
:1010F00082839FB7F8948081886080839FBF8181BD
:1011000083FFFDCF9FB7F894E0E5F0E084EC8583A2
:101110008081806180839FBF818184FFFDCF64E0F7
:1011200080E490E0E3D79FB7F894E0E5F0E08081B9
:101130008E7F80839FBF9FB7F89480818460808377
:101140009FBF818182FFFDCF85E08093430008959A
:101150009FB7F894E82FF0E0E059FF4F6095808149
:10116000682360839FBF08959FB7F894E82FF0E04D
:10117000E059FF4F8081682B60839FBF08958630C0
:1011800011F060E001C068E18091510084FD1EC053
:101190008091510083FD0DC0E0E5F0E08BEC82838F
:1011A0009FB7F8948081886080839FBF818183FF8F
:1011B000FDCF9FB7F894E0E5F0E084EC8583808173
:1011C000806180839FBF818184FFFDCF616084E463
:1011D00090E08CD760E480E0BBCF089560E480E0CD
:1011E000C3DF60E084E490E081C70895CF93DF938C
:1011F000FC0120E030E0C62FD0E0DE01022E02C06C
:10120000B595A7950A94E2F7A0FD508B2F5F3F4F4D
:1012100031962830310589F740FF0AC041FF03C0ED
:10122000FC01658302C0FC016683FC01618302C08E
:10123000FC016283DF91CF910895803A28E0920704
:1012400021F460E183E084CF0895803B28E0920799
:1012500021F460E283E07CCF0895803A29E0920790
:1012600021F460E184E074CF0895803B29E0920787
:1012700021F460E284E06CCF0895803A2AE092077E
:1012800021F460E185E064CF0895803B2AE0920775
:1012900021F460E285E05CCF0895803A9B4019F428
:1012A00060E186E055CF08950F931F93CF93DF93AE
:1012B00000D000D0CDB7DEB709831A832B833C83DF
:1012C0004D831E82BE016F5F7F4F0E94D91B269601
:1012D000CDBFDEBFDF91CF911F910F910895FC012B
:1012E0004115510589F0DB01460F571F20E49D9100
:1012F000818185FFFDCF9083818186FFFDCF218392
:101300008081A417B50799F780E00895FB018081DB
:10131000E82FE695E695E69540E2E49FF00111247A
:10132000FA5F877021E030E0A90102C0440F551F29
:101330008A95E2F746830895FB018081E82FE695C0
:10134000E695E69540E2E49FF0011124FA5F87708C
:1013500021E030E0A90102C0440F551F8A95E2F751
:10136000458308951092B82C1092C42C1092C52C6D
:10137000EAEBFCE281EA808380E2818312821382BD
:101380001482158282E090E086839783108611860E
:10139000E6ECFCE280E092ECA1E0B0E08083918397
:1013A000A283B3831482158288E086838091B82C4F
:1013B0008F5F8093B82C81E008958091B82C815084
:1013C0008093B82C08958091B72C81508093B72CCE
:1013D0008091B72C1092B62C089580E0089580E09B
:1013E00008950895FF920F931F93CF93DF938091F9
:1013F000A52781116EC00E945A20882351F0C09108
:10140000A627D091A7270E946720C817D90759F4AB
:1014100060C0C091A627D091A7270E946220C8175C
:10142000D90709F456C08FB7F894C091A8279091B6
:10143000A427911106C091E0C11190E09093A827D4
:1014400004C091E0C11190E0C92F91E09093A527CD
:101450008FBFD0E0FE01EE0FFF1FE755F84D8081F2
:101460009181FF24F394803421E0920709F4F12C58
:101470008034914091F00E945A20882339F00E94D4
:1014800067208093A6279093A7270BC00E94622015
:101490008093A6279093A72704C01092A6271092A6
:1014A000A727FE01EE0FFF1FE755F84D2081318180
:1014B00080E491E0C89FA001C99F500DD89F500DB6
:1014C00011244255584D0FE61AE06F2D81E80E9415
:1014D0003F21DF91CF911F910F91FF9008958111CE
:1014E00015C02091A82781E090E0222311F080E030
:1014F00090E0880F991FFC01E755F84D108211828A
:101500001092A4271092A52780E06CCF089580E068
:1015100069CF08958091BE2E8823DCF480768032D6
:1015200009F042C08091BF2E813209F03FC0809106
:10153000C42E9091C52E0797D9F5EEEBFEE286EC0E
:101540009CE28087918787E090E08287938781E0A3
:1015500008958076803271F58091BF2E803219F027
:101560008232B9F029C08091C42E9091C52E079780
:1015700029F5EEEBFEE281EF99E08487958786EC12
:101580009CE28087918787E090E08287938781E063
:1015900008956091C02E7091C12E76956795617007
:1015A00080E07CDA81E0089580E0089580E008958D
:1015B00080E0089580E0089580E0089580E0089537
:1015C00040912F2A5091302AE091312AF0E0EE0F1D
:1015D000FF1FEE5CF54D81E02081318142175307FA
:1015E00008F080E008950F931F93CF93DF939FB788
:1015F000F8942091312A80912E2A811110C0609197
:101600002F2A7091302AC22FD0E0FE01EE0FFF1F6B
:10161000EE5CF54D408151816417750718F49FBF4A
:1016200080E022C010922F2A1092302A81E02111EE
:1016300080E08093312A81E080932E2A9FBF80E052
:10164000BFDF80E491E0C89FA001C99F500DD89FE3
:10165000500D11244A5C554D09E61BE020E431E0B1
:1016600061E082E00E943F21DF91CF911F910F91B5
:1016700008951092B72C1092A5271092A4271092CB
:10168000A827E9EAF7E210821182128213821092EF
:10169000A6271092A72780E0A5DE10922E2A10928E
:1016A000312A1092322A1092332A10922F2A109245
:1016B000302A80E098DF882359F09091B72C9F5F03
:1016C0009093B72C9091B72C913011F49093B62C45
:1016D00008950F931F93811126C08091312AE1E074
:1016E0008111E0E0842F6115710591F4F0E020E4B0
:1016F00031E0E29FA001E39F500DF29F500D1124B5
:101700004A5C554D09E61BE061E00E943F210BC099
:10171000F0E0EE0FFF1FEE5CF54D608371831092D9
:101720002E2A80E060DF1F910F91089580E048CF5E
:101730000895EF92FF921F93CF93DF9311E0809172
:10174000CC2C893009F010E060E070E0C0E4D1E01A
:1017500020912F2A3091302A8091312A90E0FC018B
:10176000EE0FFF1FEE5CF54D4081518124173507C8
:1017700030F08091B62C8111EBCF90E01EC08C9F91
:10178000F0018D9FF00D9C9FF00D1124EA5CF54D4A
:10179000E20FF31F80817B01E82A2F5F3F4F2093E8
:1017A0002F2A3093302A80E01EDF112321F07E2D76
:1017B000662710E0CDCF8E2D9F2DDF91CF911F9109
:1017C000FF90EF90089580E0B4CF0895E091A827AE
:1017D000F0E0EE0FFF1FE755F84D808191818034D6
:1017E000914019F58091A427811110C08FB7F8940A
:1017F0009091A527911109C091E09093A427209181
:10180000A827211190E09093A8278FBFE091A827E7
:10181000F0E0EE0FFF1FE755F84D81E020813181A8
:101820002034314019F480E0089581E00895FF925A
:101830000F931F93CF93DF93F62E172F01E0809124
:10184000CC2C893009F000E0C0E4D1E080E0BEDFBC
:10185000811107C08091B62C8111F8CF80E090E013
:1018600029C06FB7F8942091A82730E0F901EE0F56
:10187000FF1FE755F84D80819181AC014F5F5F4FAD
:10188000408351832C9FA0012D9F500D3C9F500DF4
:1018900011249A012255384DF901E80FF91FF08201
:1018A0006FBF002329F0F12E110F110B00E0CECFF6
:1018B00081E090E0DF91CF911F910F91FF9008950B
:1018C000BC0180E0B4CF08957F928F929F92AF9237
:1018D000BF92CF92DF92EF92FF920F931F93CF931D
:1018E000DF936B017A018091CC2C893011F4EE0CDE
:1018F000FF1C6894AA24A6F8BB24B39480E066DF9A
:10190000811107C08091B62C8111F8CF8E2D9F2DAB
:1019100034C07FB6F894C091A827D0E0FE01EE0F46
:10192000FF1FE755F84D00811181C501801B910B08
:1019300047018E159F0508F44C01CA9DC001CB9D3F
:10194000900DDA9D900D1124800F911FA401B60116
:101950008255984D0E94E93ACC0FDD1FC755D84DEE
:10196000080D191D088319837FBEC80CD91CE818FF
:10197000F90809F0C3CF80E090E0DF91CF911F918B
:101980000F91FF90EF90DF90CF90BF90AF909F901E
:101990008F907F900895AB01BC0180E095CF0895B2
:1019A000E091D22CF091D32C0190F081E02D228196
:1019B00033812E0F3F1FFC014081E40FF11DE21720
:1019C000F307A0F481818430A1F0861306C014C00F
:1019D00081818430A1F08617A9F08081E80FF11D84
:1019E000E217F307A8F380E090E0089580E090E02C
:1019F000089580E090E008958E2F9F2F089580E055
:101A000090E008958E2F9F2F08958091C02E8F779C
:101A10000C945C2008959091D42C992381F1E0914D
:101A2000D22CF091D32C0190F081E02D9481891774
:101A300040F5E093D02CF093D12C228133812E0FEE
:101A40003F1FE217F307F8F49181943061F492811B
:101A5000891309C09381961306C0E093D02CF093AC
:101A6000D12C81E008959081E90FF11DE217F30771
:101A700058F3E093D02CF093D12C80E0089580E0CF
:101A8000089580E0089580E00895EF92FF921F93FB
:101A9000CF93DF93C82F60E0BEDF182F882381F13A
:101AA000A091D22CB091D32CEC2FF0E0EE0FFF1FC1
:101AB00012968D919C911397E80FF91FE080F180A9
:101AC000D7011696ED91FC9117971995682F8C2FD9
:101AD000A2DF182F8823A1F0C091D02CD091D12C57
:101AE00065E0CE015DDFEC01892B21F08A810E9447
:101AF0004C22F6CFD7011296ED91FC9113971995D0
:101B0000812FDF91CF911F91FF90EF9008951F9348
:101B1000CF93DF93182F7FDF882341F1C091D02C22
:101B2000D091D12C65E0CE013BDFEC01892B49F04F
:101B30004C815D816B818A810E9471208111F2CF7D
:101B400015C0A091D22CB091D32CE12FF0E0EE0F74
:101B5000FF1F12968D919C911397E80FF91F01902A
:101B6000F081E02D0190F081E02D1995DF91CF916A
:101B70001F9108950C94AD1F08950C94152008959D
:101B8000CF938091D42C8823C1F0E091D22CF09196
:101B9000D32C0190F081E02D8481882371F0C0E086
:101BA0008C2F73DFCF5FE091D22CF091D32C01907A
:101BB000F081E02D8481C81798F31092D42C1092F4
:101BC000D52C1092D62CCF910895CF938091D42C00
:101BD000882349F1A091D22CB091D32CED91FC91A6
:101BE000119784818823F9F0C0E0EC2FF0E0EE0F2C
:101BF000FF1F12968D919C911397E80FF91F01908A
:101C0000F081E02D0084F185E02D309709F01995E1
:101C1000CF5FA091D22CB091D32CED91FC91119774
:101C20008481C81710F3CF9108950F931F93CF931A
:101C3000DF93EEEBFEE21286138614861586168677
:101C40001786808188230CF03DC22091C42E3091EC
:101C5000C52E2115310509F03AC218C28F7109F05D
:101C600097C09091BF2E963081F0983009F485C0CE
:101C700091118EC02230310509F00AC262E070E095
:101C800085ED9CE20E946A202BC28091C02E90912B
:101C9000C12E292F33272230310589F02330310519
:101CA00079F12130310509F0A6C180911E20909173
:101CB0001F20DC016C9170E00E946A204FC0E0910F
:101CC0001E20F0911F202189821708F0E3C1992777
:101CD000880F991F880F991FE0912020F0912120F3
:101CE000E80FF91F80819181FC01628173810E945C
:101CF0006A20E091C62EF091C72E82E081832EC02B
:101D000099278130910599F058F08230910509F4B6
:101D1000E3C1039709F078C13AE0EAE7FEE20AC0BE
:101D200064E070E088EA90E20E946A2017C0ECE963
:101D3000F0E23AE0A2E8B0E220E0819190E08D93F9
:101D40009D932F5F2317C8F3632F660F6E5F609319
:101D5000802070E080E890E20E946A20EEEBFEE2D4
:101D600086819781228533858217930708F0B8C151
:101D70008093C82E9093C92EB3C12130310509F04C
:101D80008BC161E070E084ED9CE20E946A20A8C1F2
:101D90008130E9F59091BF2E9A30C9F52130310597
:101DA00009F038C18091D42C882309F433C1C09143
:101DB000C22ED091C32E0091D22C1091D32CD801D9
:101DC000ED91FC918481C81708F024C160E08C2F4C
:101DD00022DE882309F418C1CE019927880F991FA4
:101DE000D8011296ED91FC911397E80FF91F01901D
:101DF000F081E02D86819781FC0119958093CF2C8D
:101E000061E070E08FEC9CE20E946A2069C1823040
:101E100009F0FAC08091BF2E8111EFC02230310548
:101E200009F03CC18091C22E0E94EF2090E0809387
:101E3000CD2C9093CE2C62E070E08DEC9CE20E9461
:101E40006A204EC18F7109F084C09091BF2E9330EB
:101E500009F4D5C018F49130A1F07BC0953019F089
:101E6000993039F176C08091C42E9091C52E892B7E
:101E700009F016C185E09DE08093CA2E9093CB2E89
:101E80002FC18091C42E9091C52E892B09F00AC1D3
:101E90008091C02E9091C12E019709F005C18091CB
:101EA000D52C9091D62C8D7F8093D52C9093D62CC9
:101EB00017C18091C42E9091C52E892B09F0F6C0D0
:101EC0000E945F20882309F49FC02091C02E30918A
:101ED000C12E3327E0911E20F0911F20818990E0D0
:101EE0008217930708F490C04BDE8091C02E90912A
:101EF000C12E8093D42C882309F4F2C099278150F5
:101F0000904C880F991F880F991FE0912020F09125
:101F10002120E80FF91FE093D22CF093D32C0190ED
:101F2000F081E02D8481882309F4DAC0C0E060E00C
:101F30008C2FEDDD882309F467C0CF5FE091D22CB0
:101F4000F091D32C0190F081E02D8481C81778F3B3
:101F5000C7C08130E9F49091BF2E9B30C9F48091C5
:101F6000C42E9091C52E892B09F054C08091D42C99
:101F7000882309F44FC0EEEBFEE2C481D2818C2F9E
:101F800084DD882309F440C06D2F8C2FC0DD3AC05A
:101F90008230D1F58091BF2E813019F08330A1F0CD
:101FA00030C08091C42E9091C52E892B09F080C03D
:101FB0008091C02E9091C12E892B09F07BC0809119
:101FC000C22E0E940A211EC08091C42E9091C52E5F
:101FD000892B09F071C08091C02E9091C12E892B60
:101FE00009F06CC0CEEBDEE28C810E94FD218C8179
:101FF0000E94682207C080E005C080E003C080E046
:1020000001C080E081116DC08091BE2E8F71813042
:1020100009F056C08091D42C8823A1F1C091C22E22
:10202000D091C32E0091D22C1091D32CD801ED91D8
:10203000FC918481C81740F560E08C2FECDC88238C
:1020400009F44FC0FE01FF27CF01880F991FD80167
:102050001296ED91FC911397E80FF91F0081118101
:10206000D8011696ED91FC9117971995682F8C2F32
:10207000D2DC8823B1F1D8011496ED91FC9115972B
:1020800019952FC080E02DC080E02BC080E029C0D2
:1020900080E027C080E025C080E023C080E021C030
:1020A00080E01FC080E01DC080E01BC080E019C040
:1020B00080E017C080E015C080E013C080E011C050
:1020C00080E00FC0982F907609F09ECFBBCE982F5E
:1020D000907609F099CFC2CD35E0E6E9F0E22ACE5C
:1020E00081E0DF91CF911F910F9108951BBEFC01FC
:1020F00028ED24BF60830895CF93DF93482F50E0ED
:10210000FA017196E295F295F07FFE27E07FFE27B7
:10211000A0E0B1E014969C91149713966C91DA01AB
:10212000149621E030E0E901082E02C0CC0FDD1F3B
:102130000A94E2F70A2E02C0220F331F0A94E2F734
:102140002C2B622370E0EB010A2E02C0D595C795B7
:102150000A94E2F7C0FD1AC0082E02C07595679573
:102160000A94E2F760FD14C0292330E0B90102C0EF
:1021700075956795AA95E2F760FD0CC002C035958C
:1021800027958A95E2F7822F817005C084E003C00D
:1021900083E001C082E0918190639183440F551FD9
:1021A000FA01E255F14D0190F081E02D309709F0F0
:1021B0001995DF91CF9108951F920F920FB60F924C
:1021C00011240BB60F922F933F934F935F936F930E
:1021D0007F938F939F93AF93BF93EF93FF9380E091
:1021E0008BDFFF91EF91BF91AF919F918F917F9185
:1021F0006F915F914F913F912F910F900BBE0F9078
:102200000FBE0F901F9018951F920F920FB60F924E
:1022100011240BB60F922F933F934F935F936F93BD
:102220007F938F939F93AF93BF93EF93FF9381E03F
:1022300063DFFF91EF91BF91AF919F918F917F915C
:102240006F915F914F913F912F910F900BBE0F9027
:102250000FBE0F901F9018951F920F920FB60F92FE
:1022600011240BB60F922F933F934F935F936F936D
:102270007F938F939F93AF93BF93EF93FF9382E0EE
:102280003BDFFF91EF91BF91AF919F918F917F9134
:102290006F915F914F913F912F910F900BBE0F90D7
:1022A0000FBE0F901F9018951F920F920FB60F92AE
:1022B00011240BB60F922F933F934F935F936F931D
:1022C0007F938F939F93AF93BF93EF93FF9383E09D
:1022D00013DFFF91EF91BF91AF919F918F917F910C
:1022E0006F915F914F913F912F910F900BBE0F9087
:1022F0000FBE0F901F901895CF93DF939C01DB01C9
:10230000E0ECF1E097859923ECF3CCECD1E09881F7
:1023100098609883B901705FCD010E94E93A888185
:10232000877F8883DF91CF910895DC012091CA01D6
:10233000E0ECF1E087858823ECF3E0ECF1E083E367
:1023400082871282118290E090838D9184839F5FB7
:102350009032D1F72093CA0108951F93CF93DF9352
:10236000E0ECF1E097859923ECF320E2829FC00135
:102370001124C0ECD1E01A82998388831A8585E301
:102380008A8761E08BEC91E0B1DE1A87DF91CF9113
:102390001F9108954091CA01E62FF72F8093CA013B
:1023A00084914093CA010895E0E0F4E021E02283A3
:1023B00064877587E6EBFEE264837583828393838B
:1023C000E0E0F4E0818180FDFDCFE0E0F4E082E038
:1023D000838385E0828308958093BC2E9093BD2EE5
:1023E000089564E080E00E94A808E0E0F4E08FEF48
:1023F0009FEF82879387108611869FB7F894A8EA8B
:10240000BEE213968C9113978F5F13968C939FBFA8
:1024100081E08283808308951F920F920FB60F92FE
:1024200011240BB60F928F939F93EF93FF93E6EBDC
:10243000FEE280819181019680839183FF91EF91EB
:102440009F918F910F900BBE0F900FBE0F901F901A
:1024500018951F920F920FB60F9211240BB60F9280
:10246000CF92DF92EF92FF920F931F932F933F93A0
:102470004F935F936F937F938F939F93AF93BF938C
:10248000EF93FF93E6EBFEE280819181228133811D
:1024900082179307F0F121E020930204E091BC2E13
:1024A000F091BD2E3097A9F1609108047091090454
:1024B000A0E0B0E0DC0199278827AB0160E070E084
:1024C0008C019D01042B152B262B372BC901B8013C
:1024D000A6EBBEE212960D911C91139720E030E01E
:1024E0009801112700271496CD90DC901597E12CC8
:1024F000F12C0C291D292E293F290617170728071B
:10250000390730F0C901B8016F5F7F4F8F4F9F4F80
:102510001995FF91EF91BF91AF919F918F917F910D
:102520006F915F914F913F912F911F910F91FF906C
:10253000EF90DF90CF900F900BBE0F900FBE0F90DB
:102540001F9018951F920F920FB60F9211240BB681
:102550000F922F933F934F935F936F937F938F933C
:102560009F93AF93BF93EF93FF93E0911D2DF09155
:102570001E2D309709F01995FF91EF91BF91AF9102
:102580009F918F917F916F915F914F913F912F918B
:102590000F900BBE0F900FBE0F901F9018951F92BB
:1025A0000F920FB60F9211240BB60F922F933F93F9
:1025B0004F935F936F937F938F939F93AF93BF934B
:1025C000EF93FF93E0911B2DF0911C2D309709F0B4
:1025D0001995FF91EF91BF91AF919F918F917F914D
:1025E0006F915F914F913F912F910F900BBE0F9084
:1025F0000FBE0F901F9018951F920F920FB60F925B
:1026000011240BB60F922F933F934F935F936F93C9
:102610007F938F939F93AF93BF93EF93FF93E0913B
:10262000192DF0911A2D309709F01995FF91EF911E
:10263000BF91AF919F918F917F916F915F914F91DA
:102640003F912F910F900BBE0F900FBE0F901F90D8
:1026500018951F920F920FB60F9211240BB60F927E
:102660002F933F934F935F936F937F938F939F939A
:10267000AF93BF93EF93FF93E091172DF091182D37
:10268000309709F01995FF91EF91BF91AF919F910C
:102690008F917F916F915F914F913F912F910F900B
:1026A0000BBE0F900FBE0F901F9018951F920F92A8
:1026B0000FB60F9211240BB60F922F933F934F93A7
:1026C0005F936F937F938F939F93AF93BF93EF939A
:1026D000FF93E091152DF091162D309709F0199583
:1026E000FF91EF91BF91AF919F918F917F916F91EA
:1026F0005F914F913F912F910F900BBE0F900FBEA6
:102700000F901F9018951F920F920FB60F921124E1
:102710000BB60F922F933F934F935F936F937F93DB
:102720008F939F93AF93BF93EF93FF93E091132DFC
:10273000F091142D309709F01995FF91EF91BF9109
:10274000AF919F918F917F916F915F914F913F9149
:102750002F910F900BBE0F900FBE0F901F901895EA
:102760001F920F920FB60F9211240BB60F922F9358
:102770003F934F935F936F937F938F939F93AF9309
:10278000BF93EF93FF93E091112DF091122D3097AD
:1027900009F01995FF91EF91BF91AF919F918F91A2
:1027A0007F916F915F914F913F912F910F900BBE51
:1027B0000F900FBE0F901F9018951F920F920FB69B
:1027C0000F9211240BB60F922F933F934F935F9369
:1027D0006F937F938F939F93AF93BF93EF93FF93E9
:1027E000E0910F2DF091102D309709F01995FF9180
:1027F000EF91BF91AF919F918F917F916F915F9179
:102800004F913F912F910F900BBE0F900FBE0F90E5
:102810001F9018951F920F920FB60F9211240BB6AE
:102820000F922F933F934F935F936F937F938F9369
:102830009F93AF93BF93EF93FF93E0910D2DF09192
:102840000E2D309709F01995FF91EF91BF91AF913F
:102850009F918F917F916F915F914F913F912F91B8
:102860000F900BBE0F900FBE0F901F9018951F92E8
:102870000F920FB60F9211240BB60F922F933F9326
:102880004F935F936F937F938F939F93AF93BF9378
:10289000EF93FF93E0910B2DF0910C2D309709F001
:1028A0001995FF91EF91BF91AF919F918F917F917A
:1028B0006F915F914F913F912F910F900BBE0F90B1
:1028C0000FBE0F901F9018951F920F920FB60F9288
:1028D00011240BB60F922F933F934F935F936F93F7
:1028E0007F938F939F93AF93BF93EF93FF93E09169
:1028F000092DF0910A2D309709F01995FF91EF916C
:10290000BF91AF919F918F917F916F915F914F9107
:102910003F912F910F900BBE0F900FBE0F901F9005
:1029200018951F920F920FB60F9211240BB60F92AB
:102930002F933F934F935F936F937F938F939F93C7
:10294000AF93BF93EF93FF93E091072DF091082D84
:10295000309709F01995FF91EF91BF91AF919F9139
:102960008F917F916F915F914F913F912F910F9038
:102970000BBE0F900FBE0F901F9018951F920F92D5
:102980000FB60F9211240BB60F922F933F934F93D4
:102990005F936F937F938F939F93AF93BF93EF93C7
:1029A000FF93E091052DF091062D309709F01995D0
:1029B000FF91EF91BF91AF919F918F917F916F9117
:1029C0005F914F913F912F910F900BBE0F900FBED3
:1029D0000F901F9018951F920F920FB60F9211240F
:1029E0000BB60F922F933F934F935F936F937F9309
:1029F0008F939F93AF93BF93EF93FF93E091032D3A
:102A0000F091042D309709F01995FF91EF91BF9146
:102A1000AF919F918F917F916F915F914F913F9176
:102A20002F910F900BBE0F900FBE0F901F90189517
:102A30001F920F920FB60F9211240BB60F922F9385
:102A40003F934F935F936F937F938F939F93AF9336
:102A5000BF93EF93FF93E091012DF091022D3097FA
:102A600009F01995FF91EF91BF91AF919F918F91CF
:102A70007F916F915F914F913F912F910F900BBE7E
:102A80000F900FBE0F901F9018951F920F920FB6C8
:102A90000F9211240BB60F922F933F934F935F9396
:102AA0006F937F938F939F93AF93BF93EF93FF9316
:102AB000E091FF2CF091002D309709F01995FF91CE
:102AC000EF91BF91AF919F918F917F916F915F91A6
:102AD0004F913F912F910F900BBE0F900FBE0F9013
:102AE0001F9018951F920F920FB60F9211240BB6DC
:102AF0000F922F933F934F935F936F937F938F9397
:102B00009F93AF93BF93EF93FF93E091FD2CF091D0
:102B1000FE2C309709F01995FF91EF91BF91AF917D
:102B20009F918F917F916F915F914F913F912F91E5
:102B30000F900BBE0F900FBE0F901F9018951F9215
:102B40000F920FB60F9211240BB60F922F933F9353
:102B50004F935F936F937F938F939F93AF93BF93A5
:102B6000EF93FF93E091FB2CF091FC2C309709F050
:102B70001995FF91EF91BF91AF919F918F917F91A7
:102B80006F915F914F913F912F910F900BBE0F90DE
:102B90000FBE0F901F9018951F920F920FB60F92B5
:102BA00011240BB60F922F933F934F935F936F9324
:102BB0007F938F939F93AF93BF93EF93FF93E09196
:102BC000F92CF091FA2C309709F01995FF91EF91BB
:102BD000BF91AF919F918F917F916F915F914F9135
:102BE0003F912F910F900BBE0F900FBE0F901F9033
:102BF00018951F920F920FB60F9211240BB60F92D9
:102C00002F933F934F935F936F937F938F939F93F4
:102C1000AF93BF93EF93FF93E091F72CF091F82CD3
:102C2000309709F01995FF91EF91BF91AF919F9166
:102C30008F917F916F915F914F913F912F910F9065
:102C40000BBE0F900FBE0F901F9018951F920F9202
:102C50000FB60F9211240BB60F922F933F934F9301
:102C60005F936F937F938F939F93AF93BF93EF93F4
:102C7000FF93E091F52CF091F62C309709F019951F
:102C8000FF91EF91BF91AF919F918F917F916F9144
:102C90005F914F913F912F910F900BBE0F900FBE00
:102CA0000F901F9018951F920F920FB60F9211243C
:102CB0000BB60F922F933F934F935F936F937F9336
:102CC0008F939F93AF93BF93EF93FF93E091F32C78
:102CD000F091F42C309709F01995FF91EF91BF9185
:102CE000AF919F918F917F916F915F914F913F91A4
:102CF0002F910F900BBE0F900FBE0F901F90189545
:102D00001F920F920FB60F9211240BB60F922F93B2
:102D10003F934F935F936F937F938F939F93AF9363
:102D2000BF93EF93FF93E091F12CF091F22C309749
:102D300009F01995FF91EF91BF91AF919F918F91FC
:102D40007F916F915F914F913F912F910F900BBEAB
:102D50000F900FBE0F901F9018951F920F920FB6F5
:102D60000F9211240BB60F922F933F934F935F93C3
:102D70006F937F938F939F93AF93BF93EF93FF9343
:102D8000E091EF2CF091F02C309709F01995FF911C
:102D9000EF91BF91AF919F918F917F916F915F91D3
:102DA0004F913F912F910F900BBE0F900FBE0F9040
:102DB0001F9018951F920F920FB60F9211240BB609
:102DC0000F922F933F934F935F936F937F938F93C4
:102DD0009F93AF93BF93EF93FF93E091ED2CF0910E
:102DE000EE2C309709F01995FF91EF91BF91AF91BB
:102DF0009F918F917F916F915F914F913F912F9113
:102E00000F900BBE0F900FBE0F901F9018951F9242
:102E10000F920FB60F9211240BB60F922F933F9380
:102E20004F935F936F937F938F939F93AF93BF93D2
:102E3000EF93FF93E091EB2CF091EC2C309709F09D
:102E40001995FF91EF91BF91AF919F918F917F91D4
:102E50006F915F914F913F912F910F900BBE0F900B
:102E60000FBE0F901F9018951F920F920FB60F92E2
:102E700011240BB60F922F933F934F935F936F9351
:102E80007F938F939F93AF93BF93EF93FF93E091C3
:102E9000E92CF091EA2C309709F01995FF91EF9108
:102EA000BF91AF919F918F917F916F915F914F9162
:102EB0003F912F910F900BBE0F900FBE0F901F9060
:102EC00018951F920F920FB60F9211240BB60F9206
:102ED0002F933F934F935F936F937F938F939F9322
:102EE000AF93BF93EF93FF93E091E72CF091E82C21
:102EF000309709F01995FF91EF91BF91AF919F9194
:102F00008F917F916F915F914F913F912F910F9092
:102F10000BBE0F900FBE0F901F9018951F920F922F
:102F20000FB60F9211240BB60F922F933F934F932E
:102F30005F936F937F938F939F93AF93BF93EF9321
:102F4000FF93E091E52CF091E62C309709F019956C
:102F5000FF91EF91BF91AF919F918F917F916F9171
:102F60005F914F913F912F910F900BBE0F900FBE2D
:102F70000F901F9018951F920F920FB60F92112469
:102F80000BB60F922F933F934F935F936F937F9363
:102F90008F939F93AF93BF93EF93FF93E091E32CB5
:102FA000F091E42C309709F01995FF91EF91BF91C2
:102FB000AF919F918F917F916F915F914F913F91D1
:102FC0002F910F900BBE0F900FBE0F901F90189572
:102FD0001F920F920FB60F9211240BB60F922F93E0
:102FE0003F934F935F936F937F938F939F93AF9391
:102FF000BF93EF93FF93E091E12CF091E22C309797
:1030000009F01995FF91EF91BF91AF919F918F9129
:103010007F916F915F914F913F912F910F900BBED8
:103020000F900FBE0F901F9018951F920F920FB622
:103030000F9211240BB60F922F933F934F935F93F0
:103040006F937F938F939F93AF93BF93EF93FF9370
:10305000E091DF2CF091E02C309709F01995FF9169
:10306000EF91BF91AF919F918F917F916F915F9100
:103070004F913F912F910F900BBE0F900FBE0F906D
:103080001F9018951F920F920FB60F9211240BB636
:103090000F922F933F934F935F936F937F938F93F1
:1030A0009F93AF93BF93EF93FF93E091DD2CF0914B
:1030B000DE2C309709F01995FF91EF91BF91AF91F8
:1030C0009F918F917F916F915F914F913F912F9140
:1030D0000F900BBE0F900FBE0F901F9018951F9270
:1030E0000F920FB60F9211240BB60F922F933F93AE
:1030F0004F935F936F937F938F939F93AF93BF9300
:10310000EF93FF93E091DB2CF091DC2C309709F0EA
:103110001995FF91EF91BF91AF919F918F917F9101
:103120006F915F914F913F912F910F900BBE0F9038
:103130000FBE0F901F9018951F920F920FB60F920F
:1031400011240BB60F922F933F934F935F936F937E
:103150007F938F939F93AF93BF93EF93FF93E091F0
:10316000D92CF091DA2C309709F01995FF91EF9155
:10317000BF91AF919F918F917F916F915F914F918F
:103180003F912F910F900BBE0F900FBE0F901F908D
:1031900018951F920F920FB60F9211240BB60F9233
:1031A0002F933F934F935F936F937F938F939F934F
:1031B000AF93BF93EF93FF93E091D72CF091D82C6E
:1031C000309709F01995FF91EF91BF91AF919F91C1
:1031D0008F917F916F915F914F913F912F910F90C0
:1031E0000BBE0F900FBE0F901F901895CF93CFB7C7
:1031F000F894282F392F211588E0380749F461E029
:1032000083E00E94A80864E083E00E94A8084FC001
:10321000203488E0380749F462E083E00E94A8087F
:1032200064E083E00E94A80842C0211589E03807C5
:1032300049F461E084E00E94A80864E084E00E9410
:10324000A80835C0203489E0380749F462E084E0FA
:103250000E94A80864E084E00E94A80828C0211504
:103260008AE0380749F461E085E00E94A80864E03C
:1032700085E00E94A8081BC020348AE0380749F482
:1032800062E085E00E94A80864E085E00E94A8084A
:103290000EC021153B4049F461E086E00E94A80879
:1032A00064E086E00E94A80802C0CFBF09C09FB7B3
:1032B000F894E8EAFEE281818F5F81839FBFCFBFF0
:1032C000CF910895CF93CFB7F8943FB7F894E8EA39
:1032D000FEE22181215021833FBF282F392F211564
:1032E00088E0380749F461E083E00E94B40864E0B4
:1032F00083E00E94B4084FC0203488E0380749F4C6
:1033000062E083E00E94B40864E083E00E94B408B5
:1033100042C0211589E0380749F461E084E00E9449
:10332000B40864E084E00E94B40835C0203489E029
:10333000380749F462E084E00E94B40864E084E065
:103340000E94B40828C021158AE0380749F461E0DA
:1033500085E00E94B40864E085E00E94B4081BC0C8
:1033600020348AE0380749F462E085E00E94B4081E
:1033700064E085E00E94B4080EC021153B4049F48A
:1033800061E086E00E94B40864E086E00E94B40830
:1033900002C0CFBF01C0CFBFCF910895811528E0F3
:1033A000920729F460931D2D70931E2D089580348B
:1033B00028E0920729F46093112D7093122D08953F
:1033C000811529E0920729F46093092D70930A2D45
:1033D0000895803429E0920729F46093FD2C7093BE
:1033E000FE2C089581152AE0920729F46093F52CAC
:1033F0007093F62C089580342AE0920729F46093A4
:10340000E92C7093EA2C089581159B4021F4609378
:10341000E12C7093E22C0895811528E0920729F49D
:103420006093192D70931A2D0895803428E0920727
:1034300029F460930D2D70930E2D0895811529E0C8
:10344000920729F46093052D7093062D089580341A
:1034500029E0920729F46093F92C7093FA2C0895CF
:1034600081152AE0920729F46093F12C7093F22CD5
:10347000089580342AE0920729F46093E52C709334
:10348000E62C089581159B4021F46093DD2C709308
:10349000DE2C0895CF93DF93E0911F2DF091202D26
:1034A000848183FF08C08860848383E0838386EF00
:1034B0008093292D83C0982F947131F083E083830A
:1034C0008FEF8093292D7AC086FF43C0CFE1DDE2E4
:1034D000AA81BB818C819D8114962D913C91159779
:1034E000821793076CF49C012F5F3F4F2093232D8D
:1034F0003093242DA80FB91F11968C9187835EC03D
:103500008091252D9091262D18962D913C911997FB
:1035100082179307C8F42091272D222321F086815A
:10352000816086834BC016962D913C911797AC0114
:103530004F5F5F4F4093252D5093262DD901A80F43
:10354000B91F8C9187833AC083E083831092292D21
:1035500035C0882384F5AFE1BDE21296CD91DC91B0
:10356000139716968D919C91179728853985821708
:103570009307D8F46E817F819C012F5F3F4F20938A
:10358000252D3093262D4781DB01A80FB91F4C93C1
:10359000888599852817390718F482E083830EC03F
:1035A00087E083831092292D09C083E0838389EF0C
:1035B0008093292D03C08BEF8093292DDF91CF912C
:1035C00008951F920F920FB60F9211240BB60F920F
:1035D0002F933F934F935F936F937F938F939F931B
:1035E000AF93BF93EF93FF9355DFFF91EF91BF919F
:1035F000AF919F918F917F916F915F914F913F918B
:103600002F910F900BBE0F900FBE0F901F9018952B
:103610001F920F920FB60F9211240BB60F922F9399
:103620003F934F935F936F937F938F939F93AF934A
:10363000BF93EF93FF932EDFFF91EF91BF91AF9177
:103640009F918F917F916F915F914F913F912F91BA
:103650000F900BBE0F900FBE0F901F901895FC019E
:10366000DB0114968C91858388EB818381E08483D0
:10367000EFE1FDE211861286E0EAF0E082818260ED
:103680008283789480E00895CF93DF93EC01FB016F
:10369000892B09F44CC0309709F44BC09285809176
:1036A000282D882319F09923F1F345C08FB7F8949A
:1036B000AFE1BDE291E019969C93199790E81A96B4
:1036C0009C931A978FBFCD93DC93119712966D93AD
:1036D0007C93139714961D921C92159716961D9223
:1036E0001C92179718964C938081880F24813581FE
:1036F000232B11F4411102C08E8302C081608E839E
:10370000EFE1FDE292859038E9F38C81837081309E
:1037100049F0AFE1BDE2ED91FC9111978481837096
:103720008130C9F7EFE1FDE28285118605C088EF9F
:1037300003C088EF01C086EFDF91CF910895FC01AF
:10374000918195FFFDCF608380E090E00895CF9256
:10375000DF92EF92FF920F931F93CF93DF93EC01D1
:10376000D901C801B695A795979587954817590728
:103770006A077B0778F46A017B01CC0CDD1CEE1C28
:10378000FF1CC901B801A70196010E94823921508E
:10379000310902C020E030E0832F8F708F832E83A9
:1037A000DF91CF911F910F91FF90EF90DF90CF901D
:1037B0000895EF92FF920F931F93CF93DF93EC0145
:1037C0007B018C01C03A88E0D80729F460E183E0EE
:1037D0000E94A80812C0C03BE8E0DE0729F460E2BE
:1037E00083E00E94A80812C0C03AF9E0DF0729F47C
:1037F00060E184E00E94A80812C0003B89E018073D
:1038000029F460E284E00E94A80812C0003AEAE0CD
:103810001E0729F460E185E00E94A80811C0003B62
:10382000FAE01F0729F460E285E00E94A80808C0BA
:10383000003A8BE0180721F460E186E00E94A808B6
:103840008D81806C8D83F70184818D7F813021F49F
:103850008D8182608D8303C08D818D7F8D83F70183
:1038600084818250823008F052C0003AF8E01F078D
:1038700041F443E050E462E080E496E00E94F60800
:1038800018C0003B88E0180741F443E050E460E2D0
:1038900080E496E00E94F60818C0003AE9E01E07AE
:1038A00041F443E050E462E080E696E00E94F608CE
:1038B00018C0003BF9E01F0741F443E050E460E228
:1038C00080E696E00E94F60818C0003A8AE01807E1
:1038D00041F443E050E462E080E896E00E94F6089C
:1038E00016C0003BEAE01E0741F443E050E460E20A
:1038F00080E896E00E94F6080AC0003A1B4039F4BE
:1039000043E050E462E080EA96E00E94F608F701A6
:10391000408151816281738100E01CE62CED32E030
:10392000CE0115DF8C8188608C838C8180618C83D3
:10393000DF91CF911F910F91FF90EF90089581112A
:1039400018C09091542E992389F02FB7F894E8EA83
:10395000FEE29181915091832FBF08C02FB7F89458
:10396000E8EAFEE291819F5F91832FBF8093542EFE
:1039700008959091542E992389F3F8CF0F93E8EC92
:10398000F4E080818F7D808380818F7D8083E8E279
:10399000FEE202E0059310922A2E10922B2E00E2F6
:1039A000069300E40693E0E2FEE200E2069300E400
:1039B0000693EEEBFEE214861586168617861286AF
:1039C00013861092132E0F9108950F9385E0809324
:1039D000132EE9E2FEE204E00593E1E2FEE204E0F8
:1039E00005930F9108950F9383E08093132E109207
:1039F0002A2E10922B2EE8E2FEE202E006930F91AF
:103A00000895E091CA2EF091CB2E309709F01995C8
:103A100008950F93CF93DF938091132E833019F481
:103A2000F0DFACDF5EC080910F2E9091102EC09120
:103A3000C82ED091C92EC81BD90B71F52091112E1B
:103A40003091122E820F931F8093112E9093122E7D
:103A50002091C42E3091C52E8217930721F08091BA
:103A60002A2D882341F084E08093132EE0E2FEE2C9
:103A700002E0069336C0E091CC2EF091CD2E309727
:103A800099F01995882381F010920F2E1092102E24
:103A9000C091C82ED091C92EC034D10528F0109203
:103AA0002A2DC0E4D0E003C081E080932A2DE4E118
:103AB000FEE2C68BD78B80910F2E9091102E209115
:103AC000C62E3091C72E280F391F208F318FC80F77
:103AD000D91FC0930F2ED093102EE8E2FEE202E031
:103AE0000693DF91CF910F910895FC018181E82F1A
:103AF000E7708E2F90E0FC013197E730F105D8F4A4
:103B00008827E250FF4F8F4F0C94C03980E190E03E
:103B1000089580E290E0089580E490E0089580E8C0
:103B200090E0089580E091E0089580E092E00895AB
:103B30008FEF93E0089588E090E00895282F2F708C
:103B400030E0220F331F082E000C990B8827990FA5
:103B5000881F9927820F931F02979C01220F331F02
:103B6000220F331F220F331F820F931F8555924D53
:103B700008950F93CF938091CC0480FF63C081E0C0
:103B80008093CC04E0E2FEE200E80693E8E2FEE285
:103B900000E806938093CA04E0E2FEE200E10693A7
:103BA0008091132E882329F08350823008F429DF76
:103BB000E5DE8091222E9091232E089709F044C0D3
:103BC00088E0EFECFDE2AEEBBEE201900D928A954B
:103BD000E1F7E8ECF4E0808180628083808180629C
:103BE00080830E94150EC82F811103C0EEDEC1E054
:103BF0002CC08091BE2E88236CF41092112E10924E
:103C0000122E10920F2E1092102E82E08093132EFF
:103C100000DF1BC08091C42E9091C52E892B11F41A
:103C2000E2DE13C01092112E1092122E10920F2E5F
:103C30001092102E81E08093132EE0E2FEE202E06B
:103C4000069303C0C0E001C0C1E08C2FCF910F915B
:103C500008958F929F92AF92BF92DF92EF92FF9260
:103C60000F931F93CF93DF93D82E68DF8C01CD2D58
:103C7000CF70D0E0CE01880F991FCD2D0D2C000CF8
:103C8000DD0BCC27DD0FCC1FDD27C80FD91FCE01E0
:103C9000880F991F880F991F880F991F9C01205E1C
:103CA000314D7901C90121DF4C01DD200CF07BC0D1
:103CB000FE01EE0FFF1FEE0FFF1FEE0FFF1FEC5E6A
:103CC000F14D22893389D80115968D919C911697D3
:103CD000820F931F15968D939C93169713962D9193
:103CE0003C9114978217930709F447C0281B390B9E
:103CF0002115B4E03B0740F02FEF33E0C901B401D8
:103D00000E946E39281B390BF801808181FF0AC09F
:103D1000C901B4010E946E3941E0892B09F040E0ED
:103D2000842F01C080E0D8019C9180FB91F99C9385
:103D3000FE01EE0FFF1FEE0FFF1FEE0FFF1FEC5EE9
:103D4000F14D128A138A2687378711962D913C915F
:103D5000129715968D919C911697820F931FCC0FF9
:103D6000DD1FCC0FDD1FCC0FDD1FCC5DD14D888357
:103D70009983F70102E00693E4C0D8018C9181FF9A
:103D8000CDC08D7F8C93CC0FDD1FCC0FDD1FCC0FF2
:103D9000DD1FCC5ED14D1A8A1B8A1E861F86F70155
:103DA00002E00693CEC0FE01EE0FFF1FEE0FFF1FD5
:103DB000EE0FFF1FEC5EF14DA684B784D8018C9105
:103DC00082FF1BC01196ED91FC91129715962D91D3
:103DD0003C91169713968D919C911497B4010E9473
:103DE0006E39B0E4DB9EB00111246551734DAC0116
:103DF000CF01820F931F0E94E93AF8012581368195
:103E00002A0D3B1D25833683838194818217930776
:103E100068F485839683CC0FDD1FCC0FDD1FCC0F9C
:103E2000DD1FCC5ED14D8A899B8978C0FE01EE0FE3
:103E3000FF1FEE0FFF1FEE0FFF1FEC5EF14D4289DB
:103E40005389A416B50609F069C02817390709F483
:103E500065C0AC01421B530B9A01211554E0350794
:103E600048F02FEF33E0C901B4010E946E39281BDE
:103E7000390B06C0C901B4010E946E39281B390BE9
:103E8000FE01EE0FFF1FEE0FFF1FEE0FFF1FEC5E98
:103E9000F14D168617862815390500F5D8018C9145
:103EA00084608C93B0E4DB9EC00111248551934D56
:103EB000FE01EE0FFF1FEE0FFF1FEE0FFF1FEC5D69
:103EC000F14D80839183CC0FDD1FCC0FDD1FCC0F14
:103ED000DD1FCC5ED14D8A8A9B8A1CC0F8014181CE
:103EE000528185819681840F951FFE01EE0FFF1F81
:103EF000EE0FFF1FEE0FFF1FEC5DF14D80839183EE
:103F0000CC0FDD1FCC0FDD1FCC0FDD1FCC5ED14DE4
:103F10002A8B3B8BF70102E0069313C0D8018C91EA
:103F200080FF0FC08E7F8C931796ED91FC911897B0
:103F3000309739F015966D917C9116974D2D80E054
:103F40001995DF91CF911F910F91FF90EF90DF9026
:103F5000BF90AF909F908F900895CF9380E30E9481
:103F6000BF08E0ECF4E0808180648083CFB7F894F0
:103F7000E4E1FEE21586158A158E15A215A615AA8E
:103F8000EBEAFDE280818E7F8083E4EBFDE28081BD
:103F90008E7F8083EDEBFDE280818E7F8083E6EC77
:103FA000FDE280818E7F80836AE170E082E00E9482
:103FB000CA118F3F19F08093FA0403C08FE18093F8
:103FC000FA046BE170E082E00E94CA118F3F19F0A1
:103FD0008093FB0403C08FE18093FB04E0ECF4E0EA
:103FE000808182608083808180688083808180611D
:103FF000808380E29EE286839783808180628083D3
:104000008FEF8093C504E8ECF4E0808181608083C9
:104010001092542E9FB7F894E8EAFEE285818F5FF4
:1040200085839FBFCFBFCF910895CF93CFB7F8942B
:10403000E1ECF4E080818E7F80831092C0041082D6
:104040000E94EE0880E07BDC9FB7F894E8EAFEE28D
:104050008581815085839FBFCFBFCF91089580E038
:104060000895CF93CFB7F89481E069DCEAECF4E0EF
:1040700080E4808380E28083E1ECF4E080818160F1
:104080008083A9ECB4E08C9182608C93E8ECF4E03E
:104090008081806480838C9181608C938081806832
:1040A0008083CFBFCF910895E1ECF4E080818E7FD3
:1040B0008083089580E008958093C30408958091DB
:1040C000C30408958091502E9091512E089580E060
:1040D00090E00895EEEBFEE2808791876287738718
:1040E0000895282F2F7030E0220F331F082E000C68
:1040F000990B8827990F881F9927820F931FFC011E
:10410000EE0FFF1FEE0FFF1FEE0FFF1FEC5EF14DD6
:104110002585207C09F05FC06370613019F020F4C0
:1041200060E403C060EC01C060E840385105E9F08C
:1041300050F440325105A9F040345105A1F040310E
:104140005105D9F40CC0411522E0520791F04F3FC0
:1041500023E0520781F04115514079F408C021E075
:104160000DC022E00BC023E009C024E007C025E019
:1041700005C026E003C027E001C020E0FC01EE0FEF
:10418000FF1FEE0FFF1FEE0FFF1FEC5EF14D1586B8
:1041900036E03487262B25872585207C203C69F452
:1041A000FC01EE0FFF1FEE0FFF1FEE0FFF1FEC5E77
:1041B000F14D25852770273081F0880F991F880FD2
:1041C000991F880F991FFC01EC5EF14D8585806277
:1041D000858781E0089580E0089581E00895E82FC3
:1041E000EF70F0E0EE0FFF1F082E000C990B8827F0
:1041F000990F881F9927E80FF91FEE0FFF1FEE0F89
:10420000FF1FEE0FFF1FEC5EF14D858582FB8827B7
:1042100080F90895282F2F7030E0A901440F551F11
:10422000282F082E000C330B2227330F221F332791
:10423000240F351FF901EE0FFF1FEE0FFF1FEE0FCA
:10424000FF1FEC5EF14D958592FF17C0220F331FC3
:10425000220F331F220F331FF901EC5EF14D9585BC
:104260009B7F95876BDCFC01808180FF06C08E7F81
:1042700080830780F085E02D199581E008958F9265
:104280009F92AF92BF92CF92DF92EF92FF920F93E5
:104290001F93CF93DF93982E862E6A0179014EDC0F
:1042A0005C01292DC92DCF70D0E0CE01880F991F58
:1042B000C92D092C000CDD0BCC27DD0FCC1FDD2711
:1042C000C80FD91FFE01EE0FFF1FEE0FFF1FEE0FED
:1042D000FF1FEC5EF14D8585807C09F47EC0FE01F8
:1042E000EE0FFF1FEE0FFF1FEE0FFF1FEC5EF14DF5
:1042F0008585807C803C61F0FE01EE0FFF1FEE0F94
:10430000FF1FEE0FFF1FEC5EF14D858582FD67C03C
:104310008FB7F894F501908190FF03C08FBF80E0C4
:104320005FC0F5019081916090838FBFC182D2827E
:10433000E382F4821582168207831087811006C0FB
:1043400091E0E114F10419F090E001C091E0F50171
:10435000808190FB81F98B7F808322235CF4CC0FDA
:10436000DD1FCC0FDD1FCC0FDD1FCC5ED14D1A8AB7
:104370001B8A2FC0FE01EE0FFF1FEE0FFF1FEE0F77
:10438000FF1FEC5EF14D8585807C803CB1F4CE0151
:10439000880F991F880F991F880F991F805E914D74
:1043A000A4DBBC01C7010E946E39892B31F0F501F5
:1043B00080818E7F808380E013C0CC0FDD1FCC0F07
:1043C000DD1FCC0FDD1FCC5ED14D1E861F861A8AE5
:1043D0001B8A892D3EDC81E003C080E001C080E0C3
:1043E000DF91CF911F910F91FF90EF90DF90CF90D1
:1043F000BF90AF909F908F900895FF920F931F935F
:10440000CF93DF93182FC82FCF70D0E0CE01880F45
:10441000991FC12F012E000CDD0BCC27DD0FCC1F07
:10442000DD27C80FD91F812F89DBDC01FE01EE0FCC
:10443000FF1FEE0FFF1FEE0FFF1FE05EF14D02E0CA
:1044400005938C9180FF22C08E7F8C931796ED91FF
:10445000FC9118973097D1F011235CF4CC0FDD1F3D
:10446000CC0FDD1FCC0FDD1FCC5ED14D6A897B895F
:104470000AC0CC0FDD1FCC0FDD1FCC0FDD1FCC5EC3
:10448000D14D6E857F85412F81E01995DF91CF91C8
:104490001F910F91FF900895CF93C82FAEDFEC2F9F
:1044A000EF70F0E0EE0FFF1F8C2FCC0F990B8827D9
:1044B000990F881F9927E80FF91FEE0FFF1FEE0FC6
:1044C000FF1FEE0FFF1FEC5EF14D1586CF91089593
:1044D0000F93E82FEF70F0E0EE0FFF1F282F082E4C
:1044E000000C330B2227330F221F3327E20FF31F59
:1044F000EE0FFF1FEE0FFF1FEE0FFF1FDF01AC5E81
:10450000B14D1D969C911D9794601D969C93E05E05
:10451000F14D01E0069371DF81E00F9108951F9244
:104520000F920FB60F9211240BB60F920F932F9389
:104530003F934F935F936F937F938F939F93AF932B
:10454000BF93EF93FF938091CB04882334F480E8EA
:104550008093CA040E94E50D82C08091CB0482FF43
:1045600020C084E08093CA048091282E86FF77C003
:104570008091CC0481FD73C0FCDA811170C0809100
:10458000132E813011F42FDA6AC0843009F067C02D
:10459000E9E2FEE204E00593E1E2FEE204E00593D5
:1045A0005EC08091CB0481FF55C082E08093CA0435
:1045B0008091202E86FF53C08091CC0481FD4FC096
:1045C000D8DA81114CC08091132E823041F484E0FE
:1045D0008093132EE0E2FEE202E0069340C08330B7
:1045E00009F03DC0E9E2FEE204E00593E1E2FEE20B
:1045F00004E0059334C080E18093CA0481E0FDDECD
:1046000081E8FBDE0E94C00D1092C304E4E1FEE2EB
:10461000158696E0948783E48587158A948B858B2D
:104620008FEC9DE2808B918BA9D919C08091CB042E
:1046300086FF06C080E48093CA0480E080D90FC062
:104640008091CB0485FF0BC080E28093CA0481E097
:1046500076D905C08091CB0484FFE8CFCCCFFF9101
:10466000EF91BF91AF919F918F917F916F915F91EA
:104670004F913F912F910F910F900BBE0F900FBE56
:104680000F901F9018951F920F920FB60F92112442
:104690000BB60F920F931F932F933F934F935F93FC
:1046A0006F937F938F939F93AF93BF93CF93DF933A
:1046B000EF93FF938091CC0481FD03C05ADA8111FE
:1046C000C2C082E08093CC048091C5048195880F9C
:1046D000E0E2FEE2E81BF1092081318120523E42F6
:1046E000369527953695279536952795822F869569
:1046F00020FD02C090E001C090E8890FE82FEF7024
:10470000F0E0EE0FFF1F282F082E000C330B22279E
:10471000330F221F3327E20FF31FDF01AA0FBB1F46
:10472000AA0FBB1FAA0FBB1FAC5EB14D1C969C917C
:1047300095FF89C0EE0FFF1FEE0FFF1FEE0FFF1F4B
:10474000E05EF14D00E20693811178C08091132E56
:10475000843019F456D912D976C00091222E1091C6
:10476000232E8091C82E9091C92EC0910F2ED091EA
:10477000102E98012C0F3D1F8217930718F48C01FF
:104780000C1B1D0B8091C62E9091C72EA8016FECBB
:104790007DE28C0F9D1F0E94E93AC00FD11FC0938C
:1047A0000F2ED093102E0034110569F48091112E34
:1047B0009091122E8C0F9D1F2091C42E3091C52EEA
:1047C0008217930780F0EEEBFEE2C287D387068460
:1047D000F785E02D309729F01995811102C0F5D8A1
:1047E00032C001D930C08091C82E9091C92EC8170F
:1047F000D907F9F4E091CC2EF091CD2E309711F439
:10480000E4D821C01995811102C0DFD81CC02091C5
:10481000112E3091122E80910F2E9091102E820F1A
:10482000931F8093112E9093122E10920F2E1092A0
:10483000102EE0E2FEE202E0069305C0803811F49B
:10484000E8D801C006DAFF91EF91DF91CF91BF91D7
:10485000AF919F918F917F916F915F914F913F9118
:104860002F911F910F910F900BBE0F900FBE0F90C5
:104870001F9018951092AC20E0E0F4E082818283D2
:10488000089510926906E0E0F9E086818C7F8683C6
:1048900086818683E0E4F9E086818C7F8683868149
:1048A00086831092AC20089510926906E0E0F9E04A
:1048B00086818C7F868386818683E0E4F9E0878128
:1048C0008C7F8783878187831092AC200895109214
:1048D00069061092AC200895809160099091610959
:1048E0000C94190208950F931F93CF93DF9300D078
:1048F00000D0CDB7DEB70E94BA076B837C838D836F
:104900009E8300916009109161092091552E30918C
:10491000562EC801A0E0B0E0820F931FA11DB11D6B
:10492000B695A7959795879589839A8388EA93E2A8
:104930000E94D23B66E070E0CE0101960E94CB0C53
:104940000093552E1093562E8AE090E00E94CD3BA6
:104950002696CDBFDEBFDF91CF911F910F910895B5
:10496000CF93DF93CDB7DEB72897CDBFDEBF809161
:1049700020099091210989839A838091080490915C
:1049800009048B839C830E94BA076D837E838F8387
:10499000988788EA93E20E94D23B68E070E0CE01FB
:1049A00001960E94CB0C8AE090E00E94CD3B2896B5
:1049B000CDBFDEBFDF91CF9108952F923F924F92EE
:1049C0005F926F927F928F929F92AF92BF92CF929F
:1049D000DF92EF92FF920F931F93CF93DF93CDB7A8
:1049E000DEB76397CDBFDEBF7C016A8B7B8B3A015C
:1049F00029010B87013029F4840F951F0E941902A9
:104A000004C0841B950B0E9419020F2EC12CFBE0E1
:104A1000DF2EF02D00E019E00F2EF0E62F2EF6E04D
:104A20003F2EF02DAFC0D6011C968C911C97816053
:104A30001C968C93F8018485816084870EC00E9447
:104A4000960B882351F0A4EDBEE28D919C910E94BB
:104A50004B3B8136910509F493C0F801848580FFB2
:104A6000EECF0E947C07D10118968C9185FDFBCF7B
:104A70000E9400084B015C010E945F07F6018485DB
:104A800080FFFCCFD80190961D921C929197BB8518
:104A9000B13031F4C701861997090E94190205C087
:104AA000C701860D971D0E941902F6018485816059
:104AB0008487D8011C968C911C9781601C968C93DE
:104AC0000EC00E94960B882351F0E4EDFEE2808137
:104AD00091810E944B3B8136910509F451C0D80168
:104AE0001C968C9180FFEDCF0E947C07F1018085A0
:104AF00085FDFCCF0E9400086E877F87888B998B8D
:104B00000E945F07D6011C968C9180FFFBCFF801B5
:104B100010A211A2FB85F13051F4C701840D951D3F
:104B20008C879D87860D971D0E9419020AC0D701A8
:104B3000A419B509AC87BD87CD01861997090E94D4
:104B40001902E982FA828B829C82AD82BE828E85B6
:104B50009F85A889B9898F839887A987BA8788EAAA
:104B600093E20E94D23B6AE070E0CE0101960E947F
:104B7000CB0C8AE090E00E94CD3BEC84FD8402C027
:104B800081E015C0AA89BB89AE15BF0548F0BB8579
:104B9000B13009F448CFEA89FB89EE16FF0630F000
:104BA000FB85FF2309F43FCF80E001C080E06396DE
:104BB000CDBFDEBFDF91CF911F910F91FF90EF909E
:104BC000DF90CF90BF90AF909F908F907F906F902D
:104BD0005F904F903F902F900895CF92DF92EF9289
:104BE000FF920F931F93CF93DF936B017C01EA0138
:104BF0000E94153820E030E040E857E30E940B396E
:104C00000E946A370E94E9376130710539F4888162
:104C1000807F8160888300E010E044C062307105CD
:104C200039F48881807F8260888302E010E03AC096
:104C30006530710538F48881807F8360888304E063
:104C400010E030C06930710538F48881807F84605D
:104C5000888308E010E026C06134710538F488814B
:104C6000807F8560888300E410E01CC0613081E0B3
:104C7000780738F48881807F8660888300E011E0BF
:104C800011C06130744038F48881807F87608883E8
:104C900000E014E007C08AEA93E20E94D23B80E081
:104CA00090E00BC0980140E050E0C701B6010E94BF
:104CB00082392EA33FA3802F912FDF91CF911F9197
:104CC0000F91FF90EF90DF90CF900895A0E2B6E0B3
:104CD0008CEF11968C931197E0E6F6E080E18183EA
:104CE00090EC15969C9315979CE316969C93858360
:104CF00016820895E091AE20F091AF20E830F105E2
:104D000008F082C08827EB5FFE4F8F4F0C94C039AC
:104D1000E0E2F6E0158280EC8683E0E6F6E01582BC
:104D200080E1868389EC93E20C94D23B0895E0E223
:104D3000F6E080E4858380E88683E0E6F6E015828D
:104D400080E1868385ED93E20C94D23B0895E0E206
:104D5000F6E080E8858380E48683E0E6F6E015826D
:104D600080E1868380EE93E20C94D23B0895E0E2EA
:104D7000F6E080EC85831682E0E6F6E0158280E1BD
:104D800086838AEE93E20C94D23B0895E0E2F6E04B
:104D9000158280EC8683E0E6F6E080E1858316826A
:104DA00086EF93E20C94D23B0895E0E2F6E080E4D3
:104DB000858380E88683E0E6F6E080E185831682DD
:104DC00081E094E20C94D23B0895E0E2F6E080E8C2
:104DD000858380E48683E0E6F6E080E185831682C1
:104DE0008BE094E20C94D23B0895E0E2F6E080EC94
:104DF00085831682E0E6F6E080E18583168284E111
:104E000094E20C94D23B08958FE194E20C94D23B4F
:104E10000895E0E2F6E084E1858388E2868380E21B
:104E200085838091772E813021F488E08093250658
:104E3000089588E0809326060895E0E2F6E0158262
:104E40008CE2868380E186830895E0E2F6E01582B5
:104E50008CE386830895E0E2F6E080E185838CE2CE
:104E6000868308958F929F92AF92BF92CF92DF92E6
:104E7000EF92FF920F931F93CF93DF938C01EB017F
:104E80004A017901E0E0F4E0818180FDFDCF8FEF00
:104E90009FEF80930A0490930B04E0E0F4E081819B
:104EA00080FDFDCF87E0809300048AE394E20E94B6
:104EB000EC1181E08093AC20209709F44BC0C8012D
:104EC0000E941902BE0180E090E00E94D41110926D
:104ED0000804109209049DDFC0E0D0E00F2EF4ED2D
:104EE000CF2EFEE2DF2EF02D00E014E00F2EFFE3C8
:104EF000AF2EF4E2BF2EF02D29C00E94960B88231E
:104F000099F0F601808191810E944B3B8136910599
:104F100059F41092AC20E0E0F4E08281828387E3D0
:104F200094E20E94D23B68C0F801808591858C177D
:104F30009D0761F0C085D185DF93CF93BF92AF927B
:104F40000E94BA3B0F900F900F900F908091AC2071
:104F50008111D3CF81E08093AC20E114F10409F4F6
:104F60004BC0C4010E941902B70180E090E00E948A
:104F7000D41110920804109209044BDFC0E0D0E075
:104F80000F2EF4EDEF2EFEE2FF2EF02D00E014E0E8
:104F90000F2EFFE3CF2EF4E2DF2EF02D29C00E946A
:104FA000960B882399F0F701808191810E944B3BF9
:104FB0008136910559F41092AC20E0E0F4E0828152
:104FC000828387E394E20E94D23B16C0F801808579
:104FD0009185C817D90761F0C085D185DF93CF933C
:104FE000DF92CF920E94BA3B0F900F900F900F90DC
:104FF0008091AC208111D3CF20DFDF91CF911F9121
:105000000F91FF90EF90DF90CF90BF90AF909F9067
:105010008F9008958F929F92AF92BF92CF92DF921E
:10502000FF920F931F93CF93DF93EC018B016A01E3
:10503000F22E8617970731F484E494E20E94D23B63
:10504000C0E046C10E9419028FEF8F0D823008F038
:10505000D1C0DFDE0E9498070E94D60580E099E06B
:105060000E94F61880E499E00E94F6186CE674E25B
:1050700080E099E00E94CE1961E474E280E499E056
:105080000E94CE1964E574E280E499E00E940C1A53
:1050900083E794E28093752E9093762EE0E8F1E01A
:1050A00080ED80831086B60180E090E00E94153884
:1050B0009B01AC0160E070E080E89FE30E948137D3
:1050C00020E03BE147E35CE40E940B390E946A3731
:1050D0000E94E9374B015C010E94153820E030E066
:1050E00040E857E30E940B390E946A370E94E93773
:1050F0006230710538F4E0E0F9E08081807F816002
:1051000080836CC06230710559F4E0E0F9E0808181
:10511000807F82608083B694A794979487945EC0C2
:105120006530710578F4E0E0F9E08081807F83608C
:105130008083B694A79497948794B694A7949794F1
:1051400087944CC06930710578F4E0E0F9E0808123
:10515000807F84608083689412F8B694A7949794B3
:1051600087941694D1F73AC06134710578F4E0E081
:10517000F9E08081807F85608083689415F8B6941B
:10518000A794979487941694D1F728C0613081E052
:10519000780758F4E0E0F9E08081807F86608083C2
:1051A000892C9A2CAB2CBB2419C06130744080F43C
:1051B000E0E0F9E08081807F87608083072E7AE0DD
:1051C000B694A794979487947A95D1F7702D06C0DA
:1051D00083E493E20E94D23BC0E07AC00E947C0745
:1051E0008FEF9FEF8093660990936709809226095D
:1051F00090922709C0936009D0936109C017D10725
:1052000048F481E08093AC20E0E4F9E080858E6F83
:10521000808708C08FEF8093AC20E0E4F9E08185BF
:1052200081608187E0E4F9E000A711A781818061B6
:105230008183A0E0B9E090961D921C92919787819E
:105240008C7F878387818360878316968C911697DE
:105250008C7F16968C93169716968C911697816074
:1052600016968C9382E0809369068081807F8860A7
:105270008083C4EDDEE20EC00E94960B882351F0BD
:10528000888199810E944B3B8136910519F4F9DAA6
:10529000C1E00DC08091AC208111EECF8FEFF816E8
:1052A00029F082E0F81213C0C0E001C0C0E080E045
:1052B00099E00E946219109220091092210980E45D
:1052C00099E00E946219B9DD0E945F0701C0C0E049
:1052D0008C2FDF91CF911F910F91FF90DF90CF9096
:1052E000BF90AF909F908F9008958F929F92AF92B2
:1052F000BF92CF92DF92FF920F931F93CF93DF93D2
:105300005C016B01EA01F22E48014817590718F4B5
:105310004617570748F0AC16BD0618F0F11009C043
:1053200039C0CC16DD06D0F78FE694E20E94D23B5E
:105330005BC011E0CA15DB0549F0212FA401B501BE
:10534000CE0168DE813009F44FC010E0CC15DD05D8
:1053500021F481E0F81223C033C0212FA401B6014B
:10536000C50158DE813009F43FC081E0F81621F113
:10537000CC15DD0539F0212FA401BE01C6014ADE9E
:10538000813091F1FA948FED90E20E94D23B10E0CF
:10539000F110D0CF83E994E20E94D23B25C0212FA7
:1053A000A401BE01C50136DE813061F71DC08FED5D
:1053B00090E20E94D23BEECFCC15DD0571F4F7CF21
:1053C0002FEFA401B601C50125DE813081F70CC0A5
:1053D0008FED90E20E94D23BDDCF2FEFA401BE0102
:1053E000C60118DE8130A1F7DF91CF911F910F9197
:1053F000FF90DF90CF90BF90AF909F908F900895D7
:105400000F931F93CF93DF93EC01062FE0E0F4E0BE
:10541000818180FDFDCF87EE93E080930A04909315
:105420000B04E0E0F4E0818180FDFDCFE0E0F4E0FA
:1054300011E010831086118688E08093800180EB54
:1054400094E28093752E9093762E80E099E00E94EE
:10545000F61881E80E94FE060E9498070E947C07C9
:10546000E0E0F9E08FEF9FEF86A397A38081807F34
:105470008860808380858E6F80871093AC20209712
:10548000B1F067E674E280E099E00E940C1A21977F
:10549000E0E0F9E0C0A7D1A781818061818380E14C
:1054A000848787818C7F87838781826087830111CE
:1054B00002C0D1DC03C0013009F4C7DC109208043B
:1054C0001092090481E080936906109220091092DD
:1054D0002109C4EDDEE211C00E94960B882369F019
:1054E000888199810E944B3B8136910531F4EFD937
:1054F00087E394E20E94D23B04C08091AC208111EA
:10550000EBCFE0E0F9E087818C7F87838781878319
:105510008081807F808380E099E00E9462198DDC29
:105520000E945F07DF91CF911F910F9108952F92F5
:105530003F924F925F926F927F928F929F92AF9223
:10554000BF92CF92DF92EF92FF920F931F93CF9370
:10555000DF937C018B016A01E0E0F4E0818180FD52
:10556000FDCF87EE93E080930A0490930B04E0E074
:10557000F4E0818180FDFDCFE0E0F4E081E0808314
:105580001086118688E08093800180EB94E28093FE
:10559000752E9093762E80E099E00E94F61867E6CB
:1055A00074E280E099E00E940C1A0E9498070E9421
:1055B0007C07E0E0F9E08FEF9FEF86A397A380815F
:1055C000807F8860808380858E6F80878181806105
:1055D000818387818C7F878387818260878310A204
:1055E00011A2F801808191810E94190212DCE1145C
:1055F000F10409F45FC0812C912C312C22242394D6
:10560000C0E0D9E0A12C6894BB24B2F80F2EF5E9D4
:105610006F2EF4E27F2EF02D0F2EF0E64F2EF6E0E7
:105620005F2EF02D2092AC2088A199A1880C991CA6
:10563000F601E80DF91D019720813181820F931F3A
:1056400088A799A7F50110861186800E911EF40196
:10565000808191810E941902F40181818F93808160
:105660008F937F926F920E94BA3BF20121860F9036
:105670000F900F900F9013C00E94960B882379F023
:10568000E4EDFEE2808191810E944B3B81369105E1
:1056900031F41DD987E394E20E94D23B0BC0809184
:1056A000AC208111E9CF3394832C912C8E149F046C
:1056B00008F4B8CFE0E0F9E087818C7F87838781A9
:1056C00087838081807F808380E099E00E946219D7
:1056D000B4DB0E945F07DF91CF911F910F91FF9084
:1056E000EF90DF90CF90BF90AF909F908F907F9082
:1056F0006F905F904F903F902F9008952F923F9220
:105700004F925F926F927F928F929F92AF92BF92D1
:10571000CF92DF92EF92FF920F931F93CF93DF937D
:1057200000D000D0CDB7DEB76C015B011A01490192
:10573000ED8281E08E83C616D70608F01E8280E0D7
:105740009BE00E94F61880E099E00E94F618B801EC
:10575000660F771F80E090E00E9415389B01AC0136
:1057600060E070E080E89FE30E9481372B013C01FC
:1057700020E03BE147E35CE40E940B390E946A377A
:1057800069837A838B839C836091A2277091A3277E
:1057900080E090E00E94153820E030E543EC57E4CB
:1057A0000E9481379B01AC01C301B2010E94053701
:1057B00020E03BE147E35CE40E940B390E946A373A
:1057C0002B013C0169817A818B819C810E94E937A0
:1057D00040E05BE002DAC301B2010E94E93740E039
:1057E00059E0FBD90E947C070E945F0712DB0F2E55
:1057F000612CFBE07F2EF02D0F2EE12CF9E0FF2E27
:10580000F02D01C08D83F30110A211A2F70110A2A7
:1058100011A20E819101A401B501C601CED881115A
:1058200023C0FD81FF2309F43DC0F30110A211A2A2
:10583000F70110A211A201E0CA14DB0408F400E091
:105840009101A401B601C501B8D881110DC08FED39
:1058500090E20E94D23B8D818150FD81F23090F622
:1058600083E994E20E94D23BE8DAE0E0FBE0808149
:10587000807F808380E09BE00E9462191092200B61
:105880001092210BE0E0F9E08081807F808380E04E
:1058900099E00E94621910922009109221090E9439
:1058A0005F0705C08FED90E20E94D23BD9CF2696CC
:1058B000CDBFDEBFDF91CF911F910F91FF90EF9091
:1058C000DF90CF90BF90AF909F908F907F906F9020
:1058D0005F904F903F902F9008952F923F924F925C
:1058E0005F926F927F928F929F92AF92BF92CF9270
:1058F000DF92EF92FF920F931F93CF93DF93CDB779
:10590000DEB76497CDBFDEBF8F87988B2B015A011E
:10591000390180E09BE00E94F61880E099E00E9447
:10592000F618B80180E090E00E9415382FE632E1C9
:1059300043E85AE30E940B396B877C878D879E87EB
:1059400020E03BE147E35CE40E940B390E946A37A8
:10595000698B7A8B8B8B9C8B6091A2277091A3278C
:1059600080E090E00E94153820E030E543EC57E4F9
:105970000E9481379B01AC016B857C858D859E855E
:105980000E94053720E03BE147E35CE40E940B39CD
:105990000E946A376B877C878D879E8769897A89A1
:1059A0008B899C890E94E93740E05BE016D98C0125
:1059B0006B857C858D859E850E94E93740E059E0A6
:1059C0000CD96C01B70180E090E00E9415382FE6F9
:1059D00032E143E85AE30E940B396B877C878D875D
:1059E0009E876091A2277091A32780E090E00E949B
:1059F000153820E030E543EC57E40E9481379B01E5
:105A0000AC016B857C858D859E850E94053720E0E5
:105A10003BE147E35CE40E940B390E946A37698BE3
:105A20007A8B8B8B9C8B20E03BE147E35CE46B85BE
:105A30007C858D859E850E940B390E94E9379801EF
:105A400040E050E00E94823900E01BE0D8019896C7
:105A50002D933C93999711968C9111978061119693
:105A60008C9369897A898B899C890E94E937960190
:105A700040E050E00E9482390F2EE12CF9E0FF2E29
:105A8000F02DF70120A731A78181806181830E94D9
:105A90007C070E945F07BDD9D80190961D921C9289
:105AA0009197F70110A211A28F8598898415950509
:105AB000A0F4860D971D0E9419028F8498880F2EDE
:105AC000C12CFBE0DF2EF02D00E019E00F2EF0E6F8
:105AD0002F2EF6E03F2EF02DA7C08F8598898619CE
